:104000005542200135D0085A82452A2131400039D5
:104010003F4064060F93082492422A2120012F83F7
:104020009F4FCC8C0011F8233F40C6090F93072403
:1040300092422A2120011F83CF436417F923218351
:10404000B0123A4A474F3D400F003E40FF003F400C
:10405000241AB012F489F243221CF243F120B24038
:10406000805A2001A242600182432E01A2428001B7
:1040700082431E01B24020026001B2402001800153
:10408000F24084FF5700C2435800B2400040820112
:104090003B400C003D4000080E430C4D0CDE5942E5
:1040A00057000A4C8A107AF0070079F0F8FF4AD9D5
:1040B000C24A5700C24C5600794003000A430843E5
:1040C0000F3C18429001385282489201B2F0FEFF34
:1040D000820192B38201FD271F427001084A0A4FF4
:1040E0007953EF230A883A900104012C0E4C0D11EC
:1040F0003B53D3230F4E3FF0E0003F90E0000220FF
:104100003EF0E0FF5C4257000D4E8D107DF0070041
:104110007CF0F8FF4DDCC24D5700C24E56005E42A7
:1041200057007EF007007ED080FFC24E5700E2426B
:104130005800F2F0FDFF000082437001B24002021D
:10414000600182439001B240020180011E42600181
:104150003EF0CFFF3ED02000824E60011E42800123
:104160003EF0CFFF3ED02000824E8001C2432600A9
:10417000C2432E00C2431B00C2431F00C243330090
:10418000C2433700C2432100F240E0FF2200F24068
:1041900030002900F2407B002A00C2431900F2409F
:1041A000F1FF1A00F240DDFF1D00F240FDFF1E008E
:1041B000F2433100F2433200C2433500F24336008D
:1041C000C2432500C2432D001F4270011E427001F0
:1041D0000E8F3E900128FA2BE2D31A00F2D21A0079
:1041E000F2D080FF1E00F2D010001E00F2D080FF3F
:1041F0001D00F2D010001D0003430343F2F0EFFF57
:104200001D00F2F0F7FF19005F43B012A6464F43BE
:10421000B012A6465F43B012A6465F43B012A64650
:104220005F43B012A6464F43B012A6464F43B012AA
:10423000A6465F43B012A646F2D010001D00F2D28F
:104240001900E2D31900F2D010003200F2D02000A1
:104250003200F2D040003200F2D010003100F2D033
:1042600020003100F2D040003100B01244764F936C
:10427000FC23F243DD20C29364171420E243641749
:10428000C243CA1AD29308110520C2430811F24052
:1042900003006417C29308110320B0127E54023C3D
:1042A000C2436417F2438A1AB243CA18C243CC18F5
:1042B000B243CE18C243D018B243D218C243D41866
:1042C000B243D618C243D818B012B245C24FC11B70
:1042D0001F4262171F53824FD01A8243D21AB2F084
:1042E000EFFF8601B24000408601B240EC1B86170A
:1042F000F2F0EFFF2200E2D21E00F2F0FDFF1E00FE
:10430000B2F0EFFF8201B24000408201F243E01AB6
:10431000C243A61BC243A71BC243A81BC243A91B7F
:10432000E2D21E00F2D040001E00F2D020001E009B
:10433000B0123A4A1B420E11B0124C4A824BE61A96
:10434000B0124847824CB61B824DB81B824EBA1B36
:10435000824FBC1BD2420D11C81AC243C91AF24087
:104360001F00901BF2401A00BF1BB0124847824C3E
:10437000B61B824DB81B824EBA1B824FBC1B3E40FF
:10438000B61B0D4E3D5007000C436F4EEE4D000026
:10439000CD4F00001C531E533D532C92F623D243A5
:1043A000841AC243EA20D243CB1AC243B41BB012D0
:1043B00044764F93FC234F47B0124C4A32D282438B
:1043C000E4209243901792421811EA189242161173
:1043D000EE1A8243EC208243FA1AC243EB20C24316
:1043E000C61AA243D42082438E178243381A8243CE
:1043F000861B8243881B824394178243E6203F40FA
:104400002000B012AE798243C81882431E1A82433C
:10441000F01A8243F21A8243F41A8243C21B824387
:10442000C41B8243C61BB01210475F43B0128055B5
:104430004F931920B0123A4A829380170324B01286
:104440004C4A193C92438017B0124C4AB0123A4A77
:10445000F2D020001D00B0124C4A3E4014000F4321
:10446000B0124C4F083C6F43B0121A4B4F930320CD
:104470005F43B0121A4BB0123A4A4A4F863CC2937D
:1044800014117724B2B0100062010820B2B01000FD
:1044900064010420B2B01000660107241E426001CE
:1044A0003EF000033E9000022E245F4204003FB025
:1044B000C00005245F4271003FF0200026205F42CB
:1044C00005003FB0300005245F4279003FF0200036
:1044D0001E205F4270001FF31C245F4271003FF0FA
:1044E00020001A245F4272003FF0200018245F422F
:1044F00070002FF217245F4270003FF0200015205B
:104500007E400500133C6E43113C6E430F3C6E43EE
:104510000D3C7E4005000A3C7E400500073C7E4085
:104520000500043C7E400500013C6E43B2B0100023
:10453000A0011924B2B01000A2010524B2B2A20158
:104540000F246E43103C1F42A2013FB000040B2415
:104550001D4260013DF000033D9000020420023C3A
:104560004E43013C6E437E90050001286E42C24ED0
:104570007E175E427E170E5E1E4EB48B3ED2814E7B
:10458000000022D132C203430343F293221C772757
:10459000B0120A494B4F7F9372274F4AB0124C4AD0
:1045A0004F4BB012C26B673F32D0F000FD3F30403E
:1045B0006E8B0B120A1209120812071206123C40E7
:1045C0004E830D431E42D01A1F42D21AB0126E7A89
:1045D000074D084E094F0E4C0F4712C30F100E1017
:1045E000085E096F0993053438F339F0FF7F1853DB
:1045F00009638248D01A8249D21A0F48364137419E
:10460000384139413A413B413041C24F77005F4226
:1046100002003FF04000FB27F2F0BFFF02005F42C4
:10462000760030411E4270013F9001800A283F50C1
:1046300000801D4270010D8E0F9DFB2F0E5F3F40CD
:1046400000801D4270010D8E0F9DFB2F3041F2F056
:10465000EFFF2A003041F2D010002A0030411F4203
:104660009001013C0F4E1E4290010F9EFB233041F2
:10467000B2F0EFFF8401E2D31F00B2F0FEFF84012D
:10468000B2F0FDFF84014F4F8F107E4006000F5F98
:104690007E53FD233FD00001824F8401B2D0100031
:1046A00084014F4330414F9304245F4219006FD37C
:1046B000043C5F4219007FF0FDFFC24F1900F2D2A7
:1046C0001900F2F0F7FF190030415C4F02008C1026
:1046D0005E4F01000CDE0E4C8E104E4E12C30E10BB
:1046E00012C30E103EF003005D4EC08B8D110E4CB8
:1046F0008E104E4E7C40060012C30E107C53FC23DD
:104700005E4EC08B8E110E5D3E5006000F5E304136
:10471000C243201C824328218243201A8243901ADC
:10472000B2400F278A1BC243AB1B8243E8183041BB
:10473000F24080FFE618C2438E1AC243D820C2431B
:10474000211CC243851A30410B120A1209120812A9
:10475000C2937017B020C2936E178220B0124E46DB
:10476000F2F0EFFF2900B01256463F403002B0127F
:104770002446B0124E463F403C00B01224460B4344
:10478000F2B01000280009243B5005003F4005000E
:10479000B01224463B90F000F3233F40A401B01236
:1047A00024463B90F0005E2C7A427B4033001BB3E2
:1047B0000B24B01256463F400500B0122446B012FA
:1047C0004E463F4041000A3CB01256463F403C0036
:1047D000B0122446B0124E463F400500B0122446A7
:1047E00012C34B107A53E3233A40AC1B79424B433C
:1047F00012C34B10B01256463F400500B01224467B
:10480000B0124E463F400500B012244658422800E0
:104810003F404100B012244678B0100002247BD003
:1048200080FF7953E523CA4B00001A533A90B41B1A
:10483000DD230E434F435FEEAC1B7D420C4F1CF358
:1048400012C34F100C9302247FE08CFF7D53F6239C
:104850001E533E92F0234F930720D2436E17063C1F
:104860004F43043C6F42023C7F400600C2936E17E8
:1048700007245E42AD1B5D42AE1B5C42AF1B033C96
:104880004C434D434E434F931620C2437217F240A0
:1048900012007317F2406D007417F240450075174F
:1048A000F24050007617C24C7717C24D7817C24EAF
:1048B0007917D24370171C4272171D4274171E429B
:1048C00076171F427817384139413A413B41304110
:1048D0000B120A120B4F2A4F0A930B249F4A060011
:1048E00000002F4AB012668B0F4AB012668BBB5382
:1048F00004003A413B4130414F930324D2437000BE
:104900003041F2F0FEFF700030415F42221C4E4FFA
:104910003E50241A6D4EC24D221C7D930220F2435C
:10492000F120FE43000030415F930C2403286F9375
:104930001820103C1F4262018F105FF312241F42A7
:10494000720130411F4264018F105FF30A241F423D
:10495000740130411F4266018F105FF302241F4231
:10496000760130415F43B012F848F2F0BFFF040017
:104970003F401B00FFF0FDFF0000FFF0FBFF0000C9
:10498000FFF0F7FF00004F43B012F84830410B1220
:104990000A12091208123150EEFF0B4F194F320163
:1049A000099316204B43C14B000081430200814311
:1049B00004003D4006000E410F413F500600B0127A
:1049C000FA88C14B06008143080081430A00273C56
:1049D0003D4006000E4F3E5006000F413F500C0078
:1049E000B012FA880E4B3A403100084E385006009B
:1049F0003D4006003E500C000F48B012FA883A5372
:104A00000E48F32339538B4932013D4006000E41D5
:104A10003E500C000F413F500600B012FA881C4176
:104A200006001D4108001E410A000F4331501200CC
:104A3000384139413A413B4130410E4232C2034391
:104A400003433EF25F4301204F4330414F93012423
:104A500032D230410B12B0123A4A1D42DA1A1E42CB
:104A6000D6200D9303240D5E6D4D013C4D43C24D88
:104A700077006E531D42DA204C4E0D9C1C2C4E4D7F
:104A80001A3C5D4202003DF04000FB275B4276008D
:104A90001D42841B0D9303240C5DCC4B00001D4272
:104AA000DA1A0D9304241D52D6206D4D013C4D435E
:104AB000C24D7700013C4E4E1C42D6200D4C1D537A
:104AC000824DD6200D9EDD2BB0124C4A3B41304129
:104AD0000B12B0123A4A5B43C293A61B01244B430C
:104AE000B0124C4A4F4B3B4130410B120A124A4F15
:104AF000B0123A4A4B4FB012D04A4F9305244F4B55
:104B0000B0124C4A4F43063C4F4BB0124C4A4F4AEE
:104B1000B0120A463A413B4130410B120A124A4F49
:104B2000B0123A4A5B435A92A71B01244B43B0127E
:104B30004C4A4F4B3A413B413041B0123A4AF2F0B5
:104B4000FBFF1D00B0124C4A30410B124B4FB0120C
:104B50003A4A4E4BFE93241A06201E43C29BF12074
:104B600003240E43013C1E430E930E20F293221C9D
:104B70000320C24B221C043C5E42F120CE4B241A7F
:104B8000C24BF1204B43023C7B400500B0124C4A23
:104B90004F4B3B413041C2937C173920F2931311A4
:104BA0003620B012D04A4F933224D243C01BC29356
:104BB000221A0224C243C01BC293C01B2A24F290B3
:104BC00003007A172920C293101128205E42121187
:104BD0007E9316244F4E5D4FE01AC24D12117D9305
:104BE0000220F2431111FF43E01AC24EBE1BF243F2
:104BF0001011D2437A177F400700B0124A4B043C91
:104C0000D2431011C2437A17B0126449053C5F4386
:104C100030417F40050030414F4330414F433041E8
:104C2000D293101113205F427A175F9305207F40C3
:104C30000700B0124A4B083C6F930A20D242BE1BB9
:104C40001011F24003007A174F4330415F43304167
:104C50005F433041B0123A4AF2F0BFFF0200F2D097
:104C600040000000B0124C4AB012544A30414E4E3F
:104C7000C243E81A8243DA1A824F841B824EDA203A
:104C80008243D6200E930324B012544C043C7F4040
:104C90000600B0124A4B4F4330410B120A12091260
:104CA0000A4F494EB0123A4A4B4FB012D04A4F9376
:104CB00005244F4BB0124C4A4B431F3C4F4BB01294
:104CC0004C4AB2407F00EA1A7F407F00B0120A4689
:104CD0004B4F4E49C243E81A8243DA1A824A841B78
:104CE000824EDA208243D6200E930324B012544C15
:104CF000043C7F400600B0124A4B4F4B39413A41C9
:104D00003B413041B0123A4B5E431F428617B0120E
:104D10009A4C30410B124B4FB0123A4AC24B821799
:104D2000B0124C4A6F43B0124A4B3B4130410B1218
:104D30004B4F92436C17C243221AB012964B4F4B03
:104D4000B012144D3B413041B0123A4AE2D21D003C
:104D5000B0124C4A30410B120A1209124B4FB012DA
:104D60003A4A4A4FC29B13110424B0124C4A5F4383
:104D70004C3CF24313115B427C174B930920B01259
:104D80003A4AC243A61BB0124C4AB012964B353C6D
:104D90004C43494B021232C20343C24C3001F24031
:104DA000CDFF38011E423A0132418E1012C34E101F
:104DB00012C34E104D4E4D5D4D5D4E5D4C8E4E4CB2
:104DC0004F4C0D497CF00F004C9303240D117C5384
:104DD000FB3F1DF31724C24E13111E434D4F7DF0B0
:104DE0000F004D9303240E5E7D53FB3F4BCEC24B11
:104DF0007C177F400500B0124A4B4F4AB0124C4A14
:104E00004F43033C4C4E5C53C53F39413A413B4113
:104E100030417F400300B012564D4F4330410B12DA
:104E20000A120912B0123A4A494F1B42361BB012FD
:104E30005E460A4F1F4280015FF304241B53B012E9
:104E40005E460A4F0C430D430D4B0E4A0F430A4C6E
:104E50000B4D0ADE0BDF4F49B0124C4A0E4A0F4B86
:104E600039413A413B4130410B120A1209120812F2
:104E7000B0121E4E084E094F1E42E21A1F42E41A9B
:104E80000A4E0B4F1A52DC1A1B62DE1A099F0928C0
:104E90000220089E06280B9F102809200A9E0D2834
:104EA000063C0B9F04280F9B27280A9E252C099B54
:104EB00004280B992128089A1F2C0C4A0D4B0C88AA
:104EC0000D790D9303203C90018018280E480F495E
:104ED0003E5000800F63824EE21A824FE41A0E4C5D
:104EE0000F4D3E5000803F63824EDC1A824FDE1A27
:104EF0003C4000800D430A3C0C430D43824AE21AB9
:104F0000824BE41A8243DC1A8243DE1A0A4CB01246
:104F10005E460E4F0E880E9A052C0C4A0C8E3C9065
:104F20000300062CB0125E462F53824F9201033CC1
:104F30000C5F824C9201B2F0FEFF8201B2D01000F1
:104F40008201384139413A413B4130410B120A124A
:104F50000912081221830A4E0B4FB0121E4E084E42
:104F6000094FB0123A4A8248E21A8249E41A824A48
:104F7000DC1A824BDE1A814F0000B012684E2F41BE
:104F8000B0124C4A2153384139413A413B413041FA
:104F90000B12B0123A4A4B4FB012B2453E40460097
:104FA000B012347B0E4F3E500B00824EEE200F436A
:104FB000B0124C4F4F4BB0124C4A3B4130410B1298
:104FC0000A12B0123A4A4A4FB2926C1712207F402E
:104FD0000900B012EA4AB012124EB012484D924384
:104FE0006C177F400300B012144D4F4AB0124C4A68
:104FF0002F3CB0123A4BC293262103247F40050078
:10500000013C6F42B012EA4A4E4F3EF205204F4338
:10501000B012EA4A3FF204205B433F400300033CE6
:105020004B433F400500824F6C17B012484D4F4A2A
:10503000B0124C4A4B930724C2439217B012124E3F
:10504000B012904F053C3E4040010F43B0124C4F10
:105050003A413B4130410B120A120912494F0A4EA4
:10506000B0123A4A4B4FB012D04A4F9305244F4BDF
:10507000B0124C4A4F430D3C4F4BB0124C4A4F4973
:10508000B0120A460F4A8F10B0120A464F4AB012A9
:105090000A4639413A413B4130410B120A1209128A
:1050A00008120712084F4A4E074D4B4CB0123A4AAD
:1050B000494FB012D04A4F9305244F49B0124C4A81
:1050C0004F43213C4F49B0124C4A4A4A0A584F4A72
:1050D0007FD080FFB0120A46494F0E4A12C30E100D
:1050E0004F4E7FF0C0FFB0120A464A4B093C4E4B70
:1050F0000F4A0F8E0E4F0E576F4EB0120A467B535B
:105100004B93F5234F493741384139413A413B41AF
:1051100030410B123150F4FFB0123A4A4B4F3D422E
:105120003E40B61B0F41B012FA881E42C81AC14E4B
:1051300008008E10C14E09001E42E61AC14E0A0038
:105140008E10C14E0B004F4BB0124C4A7C400C00ED
:105150000D414E433F406001B0129A5031500C0057
:105160003B4130410B124B4FB0123A4AC24BA71B86
:10517000B0124C4A3B4130410B120A12091208127C
:105180000712B0123A4A474F1A42D61A1B42D81A8F
:10519000B0125E460D4F1F4280015FF305241A5383
:1051A0000B63B0125E460D4F12C30D1012C30D10EB
:1051B00012C30D1012C30D1012C30D10084D094378
:1051C0000E4A0F4B4FEA0FEA8F104E4E8E100E5EB6
:1051D0000F6F0E5E0F6F0E5E0F6F08DE09DF4F4719
:1051E000B0124C4A0E480F493741384139413A41D3
:1051F0003B4130410B120A1209120812B0127851C9
:10520000084E094F1E428A171F428C170A4E0B4F39
:105210001A52861A1B62881A099F09280220089EC2
:1052200006280B9F102809200A9E0D28063C0B9F7C
:1052300004280F9B27280A9E252C099B04280B99DC
:105240002128089A1F2C0C4A0D4B0C880D790D93C0
:1052500003203C90010418280E480F493E500004DA
:105260000F63824E8A17824F8C170E4C0F4D3E50A3
:1052700000FC3F63824E861A824F881A3C4000042D
:105280000D430A3C0C430D43824A8A17824B8C170C
:105290008243861A8243881A0A4C0A5A0A5A0A5AC0
:1052A0000A5A0A5AB0125E46085808580858085850
:1052B00008580E4F0E880E9A042C0A8E3A9003005E
:1052C000062CB0125E462F53824F9601033C0A5FB4
:1052D000824A9601B2F0FEFF8601B2D0100086012C
:1052E000384139413A413B413041B0123A4AF2F03B
:1052F000BFFF1D00B0124C4A3041B0123A4AF2D002
:1053000040001D00B0124C4A30410B120A12091223
:105310001B42CE1A5A4B2A004A9302207A401F00A1
:10532000B0123A4BC29A6F1A07244E4A3ED0E08020
:105330007F401500B0125650C24A6F1A694BB01226
:105340003A4A4A4FB012D04A4F9304244F4AB012FF
:105350004C4A203C4F4AB0124C4AB2403E00EA1A36
:105360007F403E00B0120A464F497F534F4FC24321
:10537000E81A824BDA1A8243841B824FDA20824376
:10538000D6200F930324B012544C043C7F400600F7
:10539000B0124A4B39413A413B413041B0123A4A8E
:1053A000F2E040003100B0124C4A3041B0123A4AAB
:1053B000F2E020003100B0124C4A30415F930A24E1
:1053C00003286F931C200E3C3E90381B1820C243CC
:1053D000C61A30413E903A1A1220C243C61AB01281
:1053E0009C5330413E90F22006243E90FC1A032448
:1053F0003E90921A0420C243C61AB012AC533041F8
:105400000B12B0123A4A5B42BF1BB0124C4A0F4B10
:105410000F5F0F5F0F5B3F502E010E4F3ED00040DD
:105420007F401800B01256503B4130410B12B01271
:105430003A4A4B4FC293841A04241E43C293EA2073
:1054400001200E434E4E8E100E5E0E5E0E5EC29317
:10545000CB1A04241D43C293B41B01200D433ED03C
:10546000E2220D5D0D5D0D5D0D5D0EDD7F401100D5
:10547000B01256504F4BB0124C4A3B4130411F4284
:10548000001112C30F10C24FDC20B0123A4AD243AF
:105490007800F2F0EFFF0500F2F0FDFF3300F2F0CC
:1054A000FBFF3300F2F0F7FF33005E4203117EF0A2
:1054B000FAFF5ED3C24E7800D24204117900D24284
:1054C00005117A001E420011C24E7C008E104E4E15
:1054D000C24E7D00D24202117B005E4206117EF078
:1054E00003007E9003000B20F2D040001B00F2D09E
:1054F00080FF1B005E4205007ED030000F3C6E93A3
:105500001020F2F0DFFF0500F2F0BFFF1B00F2D029
:1055100080FF1B005E4205007ED01000C24E0500D9
:10552000193C5E930E20F2F0EFFF0500F2F07F00D1
:105530001B00F2D040001B005E4205007ED0200020
:10554000ED3FF2F0CFFF0500F2F0BFFF1B00F2F0DD
:105550007F001B00F2F0FEFF7800F2F0CFFF0300A7
:10556000F2F0CFFF0100B0124C4AB0123A4AF2F00A
:10557000CFFF0300F2D030000100B0124C4A30419E
:105580000B124B4FB0123A4A4E4B3E50A61BCE93D5
:1055900000000420DE4300004B43013C5B43B0129B
:1055A0004C4A4F4B3B4130410B120A124B4FB01249
:1055B0003A4A4A4F4F43B01280554F932F20C24B67
:1055C0001311C29310113C20F29003007A17382077
:1055D0007F400500B0124A4B2C3CD2437A17C2439D
:1055E000BE1BB012204C253CC293BE1B22241E437E
:1055F000F293E01A0420C293111101240E430E937A
:105600001820F29312110320C2431211043C5E428F
:105610001111CE43E01AC24311110B3C1E434D4BF6
:105620007DF00F004D9303240E5E7D53FB3FC2DEE1
:105630007C174F4AB0124C4A4F433A413B413041EC
:10564000C2937A17D123C93F0B12B0123A4A4B4F7B
:105650005F43B012F848F2F0DAFF70005F43B01217
:10566000F848F2F03F0004003E401B00FEF0EFFF60
:105670000000FEF0DFFF00003D4060176F4D7FD05F
:105680000500C24F7000D24D010071001D425E172F
:10569000C24D74008D104D4DC24D7500C243730054
:1056A000EED30000EED20000FED20000F2D04000A7
:1056B00004004F43B012F848F2F03F000200F2F04D
:1056C0003F0000004F4BB0124C4A3B4130410B129F
:1056D0000A124B4FB0123A4A4A4F4F43B01280550C
:1056E0004F9306244F4AB0124C4A7F4005001E3C9F
:1056F000C29310111E20F29003007A171A200B3C5F
:10570000E2437A17C243BE1BB012204CC293101161
:105710000620B0124856C24B13114B43033CC24300
:105720007A170A3C4F4AB0124C4A4F4B3A413B4120
:105730003041C2937A17E427B0123A4AC243A61BFB
:10574000B0124C4A5B43EE3FA243341AD2438E1A46
:10575000E292131105246F42B012CE564F930320EC
:10576000B012044D30416F42B012A85530410B12B7
:10577000B0123A4A4B4F8293341A1824C2438E1AFD
:105780005E42851A4E930324F2B220000520D2B364
:10579000200008204E9303247E53C24E851AB01277
:1057A0004857073C9243341AC243851A6F42B012DD
:1057B000564D4F4BB0124C4A3B413041B01230472E
:1057C000B012484DB0123A4B7F42B012EA4A7F42C3
:1057D000B012EA4AB012484D6F42B012564DB012A4
:1057E0006E5730410B120A120912081207121742A3
:1057F000841BC293E81A02243040E45A1F42EA1A7A
:105800003FB04000022030407C5A7FF0BFFF7F90C5
:105810003F0002243040E45A1B4286176E4BC24EB2
:10582000361A1F42341A3F90050039243F90060073
:1058300084242F93022430406C5AB2400500341A5D
:105840005D42E6184D9E27242628F2B2200008204B
:10585000D2B3200005204F4E7FE34F5DC24FE618C4
:105860007E902A00182C4E930E240F4B1F537E92CD
:1058700003287E400700033CB2400600341AB012F1
:105880006E4C3040E45AC2438E1AB012484D6F42FB
:10589000B012564DE83CB012BC573040E45AB2400A
:1058A0000600341AC293CB1A4124C293B41B3E2083
:1058B0005F4B02008F105E4B01000FDE3FF02000B7
:1058C00035245A4B07008A105F4B06000ADFB012DE
:1058D0003A4A1942E61AB0124C4A0A9908245F4B18
:1058E00007008F105E4B06000FDE3F931F205F4BBB
:1058F00002008F105E4B01000FDE3FF007001F9388
:105900001520B012484DB0123A4B7F400A00B01239
:10591000EA4AB012484DB0123A4B5E42361A7E50F7
:10592000F9FF0F4B3F52B0129A4CDC3C5E42361AE4
:105930007E50F9FF0F4B3F52A23FB012484DC29329
:10594000851A03206F42B012564DC293851A032464
:10595000F2B220000B20D2B3200008245A42211CAE
:105960004A930424F2900B00361A0E2C1F4286171D
:10597000CF432D00CF433100CF433000CF432F0022
:10598000FF4080FF2E00373C5942D8205A931920FF
:105990000F490F5F0F5F3F50CC1B284F1C4F020079
:1059A0001D428617CD4831000E4C0F488F108E10C7
:1059B0004FEE0FEECD4F3000CD4C2F008C10CD4C64
:1059C0002E00195379F00700C249D8207A53C24AF1
:1059D000211C11241F428617CF432D00CF433100D5
:1059E000CF433000CF432F00FF4080FF2E00C24343
:1059F000D820C243211C5F42361A0F5BCF930000B0
:105A00003234079330245F4B02008F105FDB0100BC
:105A10007FF007001D4286176F931F201F42CE1A8A
:105A20000F932124B29007006C171D20DF9D030007
:105A300003001920B2F0EFFF82016E4DDF432C000E
:105A40000E5DDF4EFFFF28006E4E7EF07F00CF4ED2
:105A500029004F43B0122E4D063C5F9304207F4235
:105A6000B0124A4B3F3CB0126E573C3CC2438E1AB8
:105A7000B012484D6F42B012564D343C7F903E00FC
:105A80003120B012484DB2926C171120B0123A4B2F
:105A90007F400900B012EA4AB012484DB012124ECF
:105AA00092436C177F400300B012144D1B3CC2930D
:105AB00026210520A2426C17B012BE4F133CB01233
:105AC000124EB24003006C17B012B2453E40360190
:105AD000B012347B0E4F3E500B00824EDA180F434B
:105AE000B0124C4F3741384139413A413B41304186
:105AF0000B120A12091208120712061205127F92DF
:105B0000022830409C5E4F4F0F5F104F708B1F423A
:105B100082018F105FF304241F42920130409C5E8B
:105B2000B2F0EFFF82018293DC1A49208293DE1AE1
:105B300046201F426C173F50FDFF3F9006002F2C60
:105B40000F5F104F808BF2B0100020000824A2429B
:105B50006C173E4007000F43B0124C4F203CB01270
:105B6000904F1D3C7F400300B012CE564F9305244A
:105B70007F400300B012A855123CB012BE4F0F3C3C
:105B80004F430B3C7F400900B012EA4A5F43B0121A
:105B90007046B012124E7F400700B0122E4D929305
:105BA0008017022430409C5EA2438017B012EA5254
:105BB000B012FA524F43B012A85530409C5EB0125A
:105BC000684E30409C5E1F4284018F105FF30220BC
:105BD00030409C5E18429401B2F0FEFF8401B2F0A6
:105BE000FDFF8401B0121E4E0C4E0C880D43064E74
:105BF000074F068C077D1F426C173F900500042459
:105C00003F900600B820983CB24006006C17D24383
:105C10008B1AC2436A176F43B01270461C42CE1AE9
:105C2000CC4631000F460D478F108D104FED0FED14
:105C3000CC4F30000F47CC472F008F10CC4F2E0099
:105C4000CC932D006424654C7550FBFF4945095CDD
:105C50006D490A430B430B4D8B100C430D435D49BB
:105C600001000CDA0DDB5A4903000B430CDA0DDBA3
:105C70005A4902004BEA0BEA8B104A4A8A100CDAA6
:105C80000DDB0C860D77C94C03000A4D8C108A1071
:105C90004CEA0CEAC94C02000F4DC94D01008F10AF
:105CA000C94F0000B0123A4B6C420D494E450F43AC
:105CB000B0129A50B012484D6F490C430D430D4F2E
:105CC0008D100A430B435B4901000CDA0DDB5A4986
:105CD00003000B430CDA0DDB5A4902004BEA0BEAD6
:105CE0008B104A4A8A100CDA0DDB0C560D67C94C32
:105CF00003000F4C0C4D8F108C104FEC0FECC94F64
:105D000002000F4DC94D01008F10C94F00001D4208
:105D1000CE1A5F4D02008F105D4D01000FDD3FF088
:105D200020000224D243221AB012124EB2F0EFFF2A
:105D30008201E2B31C00B220C2438B1A5F43B0124F
:105D400070461D42CE1A5F4D02008F105D4D01005E
:105D50000FDD3FF020000924B24007006C173E40E1
:105D600000010F43B0124C4F033C4F43B0122E4D75
:105D7000E2B31C009324C2936A172720C2938B1AA4
:105D80002420D2438B1A6F43B01270465C421C0031
:105D90005D42211C7D920E2C4F4D5F52D8203FF06A
:105DA00007000F5F0F5F8F46CC1B8F47CE1B5D53E5
:105DB000C24D211CD2436A178248EC1AE2B31C0080
:105DC0006D204E4C6EF35A4301204A43D2938B1AF6
:105DD0006520C2438B1A5F43B0127046C2436A17F4
:105DE0004A935C200F481F82EC1A3F900A00562C01
:105DF0005F42211C4F9303247F53C24F211C1F423B
:105E0000CE1A0F934B24CF432D00CF433100CF4305
:105E10003000CF432F00FF4080FF2E003F3C1F4249
:105E200086018F105FF303241F429601373CB2F0C6
:105E3000EFFF86018293861A08208293881A052034
:105E40007F400900B0124A4B293CB012F451263C65
:105E50001F4288018F105FF321241F4298011E3CCE
:105E60001F428A018F105FF319241F429A01163CCA
:105E70001F428C018F105FF311241F429C010E3CC6
:105E80001F428E018F105FF309241F429E01063CC2
:105E90009253D61A8263D81A9253361B3541364133
:105EA0003741384139413A413B4130410B120A12E6
:105EB0000B4FB0123A4A4A4F0F4BB012CA46FF403E
:105EC0003F0000004F4AB0124C4A8243E0206F432B
:105ED000B01280554F936E205F42C11B4E4F5E53F0
:105EE000C24EC11BCB4F0300B0123A4A4A4F6F4318
:105EF000B0121A4B4F930B204F4AB0124C4AB012BB
:105F00003A4AC243A81BB0124C4A5F43553C6F4209
:105F1000B0126451824BF81A4F4AB0124C4A5F4B90
:105F200002008F105E4B01000FDE3FF020CC4E4F81
:105F30003ED041008F104F4F8F100EDFCB4E01002F
:105F40008E10CB4E0200CB432C00CB432800CB431A
:105F50002900CB433100CB433000CB432F00FB4023
:105F600080FF2E00D243AA1B1B42F81AB0123A4AF5
:105F70001E426C173E9202241E930324B0124C4A18
:105F8000143CA2436C17D2432621824BCE1AC24343
:105F90009217B0124C4A7F400300B012CE564F9376
:105FA00006247F400300B012A8554F43053CB012B1
:105FB0000A53FB3F7F4005003A413B4130410B1201
:105FC0000A1209120B4D4A4C7C901D004F2CCD4FEC
:105FD0000B00CD4E06008E10CD4E0700B0123A4A8F
:105FE0001942C81AB0124C4ACB4904008910CB4957
:105FF0000500B0123A4A19420E11B0124C4ACB4970
:1060000008008910CB4909005F4B01003FD0408850
:106010005E4B02008E100FDECB4F01008F10CB4F76
:1060200002004F4A7F500D00CB4F0000C2930C116D
:106030000824C2430C110F4BB012AC5E4F930F20DB
:10604000193CC24AF61AC243F71A824B66177F40C0
:106050000B00B0124A4BC2930C110A24033CF243CA
:106060000C11083CC243D41A4F43043C6F43023C1A
:106070007F40090039413A413B4130410B120A123D
:10608000091208127F9003002A2C4B4F0B5B3B50E8
:10609000301B8B93000025208B4E00004C4D7C5014
:1060A0000D00CE4C0000F290030009111D28594E3E
:1060B0000B005A4E07008A10584E0600C24F0911B5
:1060C0004C4D0D4E0E4A0ED84F49B012BE5F4F9345
:1060D0000C24F240030009118B430000063C5F438F
:1060E000043C7F400500013C4F43384139413A416F
:1060F0003B4130410B120A12091208120712061214
:10610000051204123150F4FF8243DC188243DE187A
:106110008243E0188243E2188243E418B140DC185D
:106120000A0091410A000600C14302000543B33C46
:106130001D410400CD9300009D2025919A240F4518
:106140001F532F919624C145030006458143080043
:1061500017410600863C0F490F5F0F590F5FD19F13
:10616000241C02007C28069979240E461E530E99A1
:1061700075244446545308436B3C0F460F5F0F563B
:106180000F5F3F50241C1C4F02000E4D0E5E0E5D33
:106190000E5E3E50241C0A4C1A8E02000B4D0B86DC
:1061A0000D490D5D0D590D5D3D50241C0E490E86A7
:1061B0001F4D02000F8CB0123C7B021232C203430F
:1061C000824B3201824F38011F423A0132410E4A5E
:1061D0000E5F0F43B012E083B01250830E9302346F
:1061E0003EE31E530F4E8F108F118F108F11B01280
:1061F000AA820C433D407A44B012E67E0A4E0B4F11
:106200000F450F5F0F550F5F3F50241C1D410400C9
:106210001E4D02001E8F02000F43B012E083B01229
:1062200050830D4E0E9302343DE31D530F4D8F10DE
:106230008F118F108F110E4DB012AA820C4E0D4F80
:106240000E4A0F4BB0120A81B012767B875E0000B7
:106250004F444F584D4F18530D998F2B064991536A
:1062600008005F4103005F510800494F8199000019
:10627000722F254191530000B15006000400B190E7
:10628000C80000005523D1530200A1530600F1902D
:10629000050002000624B140241C040081430000D4
:1062A000473FC293C61AF0205542EB200E430F43DE
:1062B000559E241C01281F533E5006003E90B004FA
:1062C000F723824F8C1B0D431C410A003B4C0E4DA3
:1062D0003E5005000E5E3E503A1ACE4B0E003E5028
:1062E0000D008B10CE4B00001D533D900500EE239A
:1062F0001E426217C14E0000C24E471A8E104E4E0B
:106300004A4EC24E461A1E4290170D4E1D53824DE4
:106310009017C14E0200C24E491A8E104E4E4B4E7F
:10632000C24E481AC14F0400C24F4B1A8F104F4F34
:10633000C14F0600C24F4A1A1F42E818464FC24FCB
:106340004D1A8F104F4FC14F0800C24F4C1A1F42B9
:10635000201A444FC24F4F1A8F104F4F484FC24F11
:106360004E1AC245501A3F401500B0125E8A074FC0
:106370000F43094F3950050009590C493C503A1A4E
:106380003C500D006E4C8E105D4C01000EDD0D4733
:106390000D59CD4E02001D538E10CD4E00001F53DF
:1063A0003F900500E6234A4A8A1069410AD9C74A44
:1063B00001008A10C74A00004B4B8B105A41020063
:1063C0000BDAC74B03008B10C74B02005C41060081
:1063D0008C105B4104000CDBC74C05008C10C74CD3
:1063E00004005D4108008D104C460DDCC74D0700D0
:1063F0008D10C74D06004E488E104D440EDDC74E21
:1064000009008E10C74E0800C7450A00B29005006B
:10641000F41A04203F40F01AB012D0485B42481AE8
:106420008B105E42491A0BDE3F42B0125E8A8F47E4
:1064300000008F4B02008F4304008F4306008293BD
:10644000F01A0520824FF21A824FF01A063C1E42C3
:10645000F21A8E4F0600824FF21A9253F41AF24348
:10646000401AF243411AD243451A7D4015003E407E
:106470003A1A5F43B0127C604F930420D243C61A8D
:10648000B0129C53B012104731500C0034413541CA
:1064900036413741384139413A413B4130410B1295
:1064A0000A120912081207120612051204123150BC
:1064B000E8FF37406E1B5642761B66B312241A4221
:1064C0006E1B1B42701B1C42721B1D42741B084E2C
:1064D000094F088A097B099D04280D991F28089CEB
:1064E0001D2C3740781B5642801B66B3022030407B
:1064F000B86A1A42781B1B427A1B1C427C1B1D4245
:106500007E1B0E8A0F7B0F9D022C3040B86A042040
:106510000E9C022C3040B86A1F43013C0F4356F3D7
:106520000424F7F0FDFF0800083C084C094D085A08
:10653000096B87480000874902005F9302243040BE
:10654000B86AC293AB1B0720C293201C042082436D
:106550002821D243AB1B9142D4200E003E4058026A
:106560001F410E00B012347B0F5F914F16111200C5
:106570009142FA1A100092411000EC209142E4205E
:106580000C0092410C00FA1A1942EE1A8249E420DA
:106590001842EA188248EE1A92411200EA181E4187
:1065A0000C001E8110000F43B012E083064E074F0F
:1065B0000C430D43B0125A820F93023437E000802F
:1065C0000E491E810C000F43B012E0830A4E0B4FA0
:1065D0000C430D43B0125A820F9302343BE000800B
:1065E0000E480E890F43B012E083814E1400814F94
:1065F00016000C430D43B0125A820F930334B1E0DE
:10660000008016001E4112000E880F43B012E08376
:10661000044E054F0C430D43B0125A820F930234BF
:1066200035E00080A1830E003E40C8001F410E00EF
:10663000B012347B2F9366283F90C60063243F90AE
:10664000C7006024819310005D2481990C00092CFF
:106650000899072C91910C001000032C81981200CE
:10666000512819910C00092C0998072C91911000C0
:106670000C00032C18911200452881990C00042C61
:106680000899402809983E2C19910C00042C09986F
:1066900039280899372C0E460F47B012767B074EE3
:1066A0000E4A0F4BB012767B0A4E1E4114001F415A
:1066B0001600B012767B084E0E440F45B012767B62
:1066C0000A97022C089E0428079A092C0E98072C7A
:1066D0009293941719249293E6201820153C0B47A7
:1066E00012C30B100A9B052C0B4812C30B100A9BFC
:1066F00012280C470C5C0C9A0B2C0D480D5D0D9A62
:106700000A28063C4B43083C6B42063C5B43043C76
:106710007B400300013C6B43C293AB1B32241D4200
:1067200028210D93032092410E00E8180E4D0E5EB5
:106730000E5D0E5E3E50241CCE4B00008E490200C2
:106740009E410E0004001D53824D28213D90C8003B
:106750000A28C243AB1BD243201C92410E00201AD0
:10676000B012F4600E3C1E42901A0E99012C0E4994
:10677000824E901A1E428A1B099E012C0E49824E9F
:106780008A1B9242E6209417C24BE620C243E720C0
:10679000C29BEB200F281E421E1A3E9032001F247F
:1067A0001E53824E1E1A0D4E0D5D0E5D0E5E3E5046
:1067B000EC180E3C1E42C8183E90320010241E53A6
:1067C000824EC8180D4E0D5D0E5D0E5E3E50961742
:1067D000CE4B00008E4902009E410E0004009253F1
:1067E000D4208293C61B7C241F42C21B184F040076
:1067F0002B4F094819538F4904000A430E4A2E5360
:106800000E5E0D4B0D5E1D536F4D8F105D4D0100E3
:106810000FDD3E50FC1ACE4F0E003E500D008F1083
:10682000CE4F00000F4A3F5007000F5F0D4B0D5F2A
:106830001D536E4D8E105D4D01000EDD3F50FC1A54
:10684000CF4E0E003F500D000D4E8D104D4DCF4DD3
:1068500000008D104F4E3E40C8000FDDB0121A7B75
:106860003E401400B012347BDF53701A1A533A9032
:106870000500C4236F4B8F105E4B01000FDEC24F2B
:10688000091B8F10C24F081B5F4B02008F105E4B1D
:1068900003000FDEC24F0B1B8F10C24F0A1BD24BDF
:1068A00004000C1BF243021BF243031BF2400300E3
:1068B000071B7D4019003E40FC1A6F43B0127C60FC
:1068C0004F930420D243C61AB012AC532893022C23
:1068D0003040B86A3F40C21BB012D0483040B86A5E
:1068E000C293C61A02243040B86AB2900500C81894
:1068F000042CB29005001E1ADF285A43B2900500FE
:106900001E1A012C4A430B434A9303243F40EC18C0
:10691000023C3F409617B0128E49814C0600814DD3
:106920000800814E0A003D4006000E413E50060020
:106930000F41B012FA881E4102000F4B2F530F5F18
:106940003F50F220CF4E0E003F500D008E10CF4E24
:1069500000001E4104000F4B3F5007000F5F3F50E7
:10696000F220CF4E0E003F500D008E10CF4E000093
:106970001B533B900500C8231F426217464FC24F6E
:10698000FF208F104F4F494FC24FFE201D429017DE
:106990000E4D1E53824E9017484DC24D01218D1051
:1069A0004D4D474DC24D0021C24A02215A937020DD
:1069B0003F401900B0125E8A0B4F4E498E104D4673
:1069C0000EDDCF4E01008E10CF4E00004F478F10CE
:1069D0004E480FDECB4F03008F10CB4F0200DB433E
:1069E00004000C430E4C2E530E5E0D4E3D50F22013
:1069F0003D500D006F4D8F105D4D01000FDD0E5BA2
:106A0000CE4F02001E538F10CE4F00000E4C3E5052
:106A100007000E5E0D4E3D50F2203D500D006F4DB3
:106A20008F105D4D01000FDD0E5BCE4F02001E5337
:106A30008F10CE4F00001C533C900500D323B29022
:106A40000F00C61B04203F40C21BB012D0485A4260
:106A500000218A105F4201210ADF3F42B0125E8AA4
:106A60008F4B00008F4A02008F4304008F430600C3
:106A70008293C21B0520824FC41B824FC21B063C5F
:106A80001E42C41B8E4F0600824FC41B9253C61B6E
:106A9000F243F820F243F920F2400300FD207D404C
:106AA00019003E40F2206F43B0127C604F930420E7
:106AB000D243C61AB012AC537F400A00B0124A4B00
:106AC0003150180034413541364137413841394160
:106AD0003A413B4130410B120A12091208120712C7
:106AE000484F074E4D4F0D5D8D43301B5D420911E0
:106AF0003E4003000F4D1F53B0126E7B4C4F794048
:106B000003004B4C0D4B0D5D8D93301B14244D4CED
:106B100012C34D1012C34D1012C34D104D4D5D4D9B
:106B2000DE204A4B7AF007004A9303240D117A5372
:106B3000FB3F1DF30A243E4003000F4B1F53B012CE
:106B40006E7B4C4F7953DD23293CC24C09115D42C9
:106B500009117D900300182C4D4D0D5D1D4D301B0E
:106B60005B4D07008B105A4D06006C4D7C50F3FFB7
:106B70000E4B0EDA5F4D0B00B012BE5F4F93042434
:106B80007F400D00B0124A4B0E474F48B012BC5325
:106B90003741384139413A413B413041F2400300ED
:106BA0000911D53F0D4F5F4209117F900300082C5A
:106BB0004E4F0E5E1E4E301B0E9D0220B012D66A46
:106BC00030410B120A12091208120712061205129E
:106BD00004123150D8FF7F900F00022830402E76EB
:106BE0004F4F0F5F104F8C8BB0123A4A4B4F5F43A1
:106BF000B012704692436C17C2436A17C243221AFE
:106C0000C2436F1A4F4BB0124C4AB0123A4A814FEE
:106C10002600B01230479243341AC2438E1AF2F063
:106C2000FEFF2500F2F0FEFF2300D2D32400D2D3D2
:106C300025001F412600B0124C4AB0123A4A4B4F71
:106C4000A292801705207F400300B012EA4A4F4B02
:106C5000B0124C4AB0123A4A4B4FB012484D4F4313
:106C6000B012564D4F4BB0124C4A6F43B0126451A4
:106C7000B0127851824E781B824F7A1BB24032009C
:106C80007C1B82437E1B5F42801B7FF0FEFF6FD325
:106C9000C24F801B7F400A00DC3C4F43B01264515E
:106CA00030402E76B0123A4AB0124C4A7F40030070
:106CB000B0121A4B4F933C24B0123A4A4B4F8243C6
:106CC0006C17B2F0EFFF8201B2F0EFFF8401F2F037
:106CD000FDFF1F007F400300B012564DB012484D1B
:106CE0004F4BB0124C4AB0123A4A8243341A814F89
:106CF0002600B0123047B012484DF2F0FEFF2500DA
:106D0000F2F0FEFF23001F412600B0124C4A8243DE
:106D10008017B012EA52B0123A4AF2F0DFFF1D00BB
:106D2000B0124C4AB012FA525F43B0124A4B033CC5
:106D30006F43B01264511B42F81AB0123A4AC24370
:106D4000A81BB0124C4A8293E020022430402E76D9
:106D5000F2430C110F4B3040BE75B0123A4A4B4F04
:106D6000C293F0200D20D243F020A292801704207D
:106D70005F43B012A855033C6F42B0124A4B4F4BD1
:106D8000B0124C4A30402E76B0123A4AC243F0203C
:106D9000F73FB0123A4A5B421311B0124C4A7B9053
:106DA0000500022830402E764F4B0F5F104FAA8B04
:106DB000B0123A4BB0123A4A4B4FA2938017E023DD
:106DC000B240030080173E4018007F401D00B01203
:106DD0005650F2F0EFFF2500F2F0EFFF2300F2F043
:106DE000EFFF2400F2D0100025005F43B012EA4A02
:106DF0003E407F027F401C00B0125650B01200543B
:106E0000B0122C543E40562A7F401700B012565004
:106E10003E40FF807F401500B0125650B03FB01288
:106E20003A4B7F400600B012EA4AB0120054B0124A
:106E30002C54B0121251B012484DB0123A4B7F4050
:106E40000300B012EA4AB012484D5F43B012564DEB
:106E50006F42B0124A4B30402E76B0123A4BB0120D
:106E60003A4A4B4FB012D04A4F9304244F4BB012C2
:106E70004C4A0D3C4F4BB0124C4A7F405300B0126D
:106E80000A464F43B0120A464F43B0120A46B012A8
:106E9000484D6F43B012564D30402E76B0123A4AEC
:106EA0005B426C17B0124C4A6B9208247B920A2406
:106EB0006B931E20B0120A5330402E76B012BE4F94
:106EC00030402E76B0123A4B7F400900B012EA4AA9
:106ED000B012484DB012124EB0123A4A92436C179B
:106EE000B0124C4A7F400300B012144D30402E7651
:106EF000B012124E30402E76B012044D30402E7635
:106F0000B0123A4A814F2600B012E45730409075D3
:106F1000B0123A4AD242BE1B1011F24003007A1757
:106F2000B0124C4AC29310110220B0124856C293BC
:106F30001011022430402E767F4005008A3F1A420D
:106F40008617694A4E490E5A6F4E4F5F0F430F6FB7
:106F5000CA4F2B00664E76F07F00CA462900DA4EF3
:106F6000FFFF2800584A02005B4A0100B0123A4A6B
:106F70005742841AB0124C4A479348244E488E1008
:106F80004F4B0EDF8E104E4E12C30E1012C30E105A
:106F90003EF003002E931E20584A070088105F4AD7
:106FA000060008DFB0123A4A1B42E61AB0124C4AF9
:106FB000089B0B245F4A07008F105E4A06000FDE15
:106FC0001E433F9303240E43013C1E430E931E2099
:106FD000304062743E90030002243040627491425B
:106FE000B61B00009142B81B02009142BA1B04007C
:106FF0009142BC1B06003D420E410F4A3F50060025
:10700000B012DA880F9302243040627479900D0038
:10701000022C30406274174286175D4702008D10C3
:107020005E4701000DDE0E4D8E104E4E12C30E1047
:1070300012C30E103EF003000A473A5006008D10AE
:107040004D4D7C40060012C30D107C53FC233D9037
:10705000030002242D43013C3D423E9003000224E4
:107060002E43013C3E420A5E0B430E430F4A0F5E25
:107070006F4F0B5F1E530E9DF93B58470300F243C1
:10708000E220B0123A4A5C42E2203E40CA180D4368
:107090002B9E0A20CE9802000620C24CE220B0129D
:1070A0004C4A30405E744C4D1D532E522D92F023AD
:1070B000C24CE220B0124C4A5A42E220B0123A4A84
:1070C0007A930324C29A681704205A4268175D43D2
:1070D000013C4D434E4A0E5E0E5E8E4BCA18CE48A2
:1070E000CC184D9307245E4268175E537EF0030070
:1070F000C24E6817B0124C4AB0123A4A4A4F0F4774
:10710000B012CA466B4F4F4AB0124C4AC7932B007D
:10711000022030405E747B903F00022430405E7459
:107120005A4707008A105E4706000ADEB0123A4A44
:107130001B420E11B0124C4A0A9B0B245E470700FB
:107140008E105D4706000EDD1D433E9303240D4364
:10715000013C1D430D93022030405E747950F3FFD3
:107160005E470B004E9305246E93022430405E74FC
:10717000363C79900600022430405E745E470C0075
:107180008E105D470D000EDD1E9262170224304006
:107190005E745E4710008E105D4711000EDD0E9389
:1071A0000E205E470E008E105D470F000EDD3F4043
:1071B000F01AB012107A82438E1730405E741E931C
:1071C000022430405E745E470E008E105D470F0053
:1071D0000EDD3F40C21BB012107A30405E746992DF
:1071E000022430405E7456470C0086105E470D0046
:1071F00006DE16926217022430405E745E470E006F
:107200008E105C470F000EDC814E1C003E40C80013
:107210001F42D420B0121A7B0D4F3D53D14D921B0B
:107220002200D14D701A23001E42DC180F43B01209
:10723000E0833C4000503D404348B0120A810C4E70
:107240000D4F0E433F40803FB012967E814E0800A6
:10725000814F0A003940DC18084138500C002E4993
:107260000F43B012E0830C433D407A44B0120A81D0
:107270000A4E0B4F1E4902000F43B012E0830C432D
:107280003D407A44B0120A810C4E0D4F0E4A0F4B0E
:10729000B012967E0C433D404843B0120A81884E9E
:1072A0000000884F0200295328523990E418D72350
:1072B0005A42EB2009413952044305430B430E4423
:1072C0000F453C493D49B0124A7E1B530A9BF93792
:1072D000044E054F0A5B814A2400B140C8002000DB
:1072E00091828C1B2000814A1E000943313C1F41C2
:1072F00024000F5F0F5F38420851085F08591E4194
:107300001C000F43B012E0830A4E0B4F1E412000B9
:107310000F43B012E0830C4E0D4F0E4A0F4BB012CC
:107320000A810C4E0D4F0E433F40803FB012967EB7
:107330002C481D480200B012E67E0C4E0D4F0E4444
:107340000F45B0124A7E044E054F91531E0029523C
:10735000B19005001E00CB3B5C4122003E40050081
:107360001F411C000F8CB0121A7B021232C2034361
:10737000D24125003001F240CDFF38011D423A01D3
:1073800032418D1012C34D1012C34D104C4D0F5C85
:107390000D4F8D108D118D108D110E4F0F4DB012A0
:1073A000AA820C433D402042B0120A810A4E0B4F84
:1073B000C2469F1A0D468D10C24D9E1AF240B8FF6C
:1073C000A11AF2400B00A01A3C4000403D401C4670
:1073D0000E440F45B012E67EB012767BC24EA41A60
:1073E0008E10C24EA31A3C4000403D401C460E4A3F
:1073F0000F4BB012E67EB012767BC24EAE1A8E10E4
:10740000C24EAD1A5E470E008E105D470F000EDDB6
:10741000C24EB01A8E10C24EAF1AD2412200B21A1A
:10742000C243B11AD2412300B41AC243B31AF24381
:10743000981AF243991AF24003009D1A7D401900F0
:107440003E40921A6F43B0127C604F930420D243A7
:10745000C61AB012AC53824A861B824B881B8247E5
:107460008617B0123A4AC2438E1AB0124C4AB01272
:107470006E5730402E76C2936E1A28201A42C81BCF
:107480001B42CA1BB0123A4A1842861A1942881A7D
:1074900018528A1719628C17B0124C4A824AC81BBC
:1074A000824BCA1BC2436E1AB0123A4A82488A17EC
:1074B00082498C17824A861A824B881A814F26008D
:1074C000B012F4511F412600B0124C4AB01278514C
:1074D000483CB0127851084E094FB2F0EFFF8601D8
:1074E000E2B3761B15240A4E0B4F1A826E1B1B72D9
:1074F000701B1642721B1742741B068A077B0A46D2
:107500000B4736930A203B90FF7F07204D43063CF4
:107510004D433A433B40FF7F013C5D43E2B3801B58
:1075200016240E480F491E82781B1F727A1B1642C2
:107530007C1B17427E1B068E077F0E460F470F9B54
:1075400003380520069A032C0A4E0B4F023C4D933C
:107550006E240B9304381B9307341A93052C0E48A2
:107560000F49B0129E64633C824AC81B824BCA1BFF
:10757000D2436E1AB0123A4A82488A1782498C174F
:10758000824A861A824B881A814F2600B012F45123
:107590001F4126003040806D5F42D41A5F920C116B
:1075A0004624C24F0C114F930D201F426617B01294
:1075B000AC5E4F933C24F2430C111F426617B0128D
:1075C000A46B353CF2430C11323CC293DE202F24D5
:1075D0003840301B4B435A435F42DE204ABF0924E8
:1075E0002E48884300004FCAC24FDE204F4BB012D6
:1075F000BC534A5A5B5328537B92EE23183C5F429C
:1076000009114E4F0E5E1E4E301BB012D66A0F3C53
:10761000B0123A4AD242CA1A0811F2400300641763
:10762000B0124C4AC29308110220B0127E5431505D
:1076300028003441354136413741384139413A41DA
:107640003B413041F293221C0824B0120A497F9337
:107650000624B012C26B5F4330414F4330414F4369
:1076600030410F120E120D120C124F43B012284966
:107670003C413D413E413F41B1C0F000000000139C
:107680000F120E120D120C121F422E014F4F12C379
:107690004F10B01228493C413D413E413F41B1C0ED
:1076A000F000000000130F120E120D120C124F43C7
:1076B000B012F05A3C413D413E413F41B1C0F00063
:1076C000000000130F120E120D120C121F421E01A9
:1076D0004F4F12C34F10B012F05A3C413D413E4152
:1076E0003F41B1C0F000000000130F120E120D1246
:1076F0000C1221835E4223005F4225004FFE4F4F54
:10770000814F000091B300000E24F2F0FEFF230031
:107710009293341A0520A243341AB0124857553CAC
:10772000D253851A523CA1B3000005245F422300C6
:107730007FF0FDFF483CA1B2000005245F4223001A
:107740007FF0FBFF403CB1B2000005245F42230004
:107750007FF0F7FF383CB1B0100000001A24F2F0BF
:10776000EFFF2300A2428017F2F0EFFF2500F2F0B6
:10777000EFFF23000E437F401D00B0125650B012A1
:107780001251B012484DB0123A4B4F43B0124A4B0F
:107790001C3CB1B02000000005245F4223007FF0B4
:1077A000DFFF113CB1B04000000005245F42230020
:1077B0007FF0BFFF083CB1B08000000006245F42AC
:1077C00023007FF07F00C24F230021533C413D4105
:1077D0003E413F41B1C0F000000000130F120E12F5
:1077E00021835E422B005F422D004FFE4F4F814FA1
:1077F000000091B3000005245F422B007FF0FEFFE4
:107800003B3CA1B3000005245F422B007FF0FDFF4D
:10781000333CA1B2000005245F422B007FF0FBFF48
:107820002B3CB1B2000005245F422B007FF0F7FF34
:10783000233CB1B01000000005245F422B007FF014
:10784000EFFF1A3CB1B02000000005245F422B007E
:107850007FF0DFFF113CB1B04000000005245F4223
:107860002B007FF0BFFF083CB1B080000000062471
:107870005F422B007FF07F00C24F2B0021533E411F
:107880003F41B1C0F000000000130F120E120D12A4
:107890000C125E4276005F427A174F931C24183C0C
:1078A000C293101118201F42841B0F9304241F52EF
:1078B000D620CF4EFFFF9292DA20D620032CB012B2
:1078C000544A093CF2F0BFFF0000B012E457033CF9
:1078D0007F900300E5273C413D413E413F41B1C01F
:1078E000F000000000130F125F4270003FF0200014
:1078F00006245F4270002FF202245F4270003F4175
:10790000B1C0F000000000130F4330410F120E12FF
:107910000D125D427E005F4264174F931924153C9F
:10792000C293081115201E428C1A0E9311241F4277
:10793000821B0E5FCE4D00001F53824F821B1F9291
:107940006C1B062882438C1A033C7F900300E827B7
:107950003D413E413F41B1C0F000000000130F1215
:107960000E125F4264174F931C24183CC2930811F7
:107970001820C29388170F201F42CC1A1F928E1B0B
:107980000A2C1E42E8200E5F6E4E1F53824FCC1A07
:10799000C24E7F00063C8243E820033C7F900300F8
:1079A000E5273E413F41B1C0F000000000130B123B
:1079B0000B4FB0123A4A4E4FC29308110F20F2906B
:1079C000030064170B20B0124C4AF2F0DFFF0300F3
:1079D000F2F0DFFF0100C24B7F00053C4F4EB012BA
:1079E0004C4A3B43123C5F4203003FF02000FB2720
:1079F000F2F0DFFF0300B0123A4AF2F0DFFF0300BB
:107A0000F2D020000100B0124C4A0F4B3B413041F4
:107A10000B120A120912094F2A4F0A9323248A9E35
:107A2000020008209F4A060000002F4AB012668B11
:107A30000F4A0D3C1B4A0600133C8B9E02000D2092
:107A40009A4B060006002F4BB012668B0F4BB012FC
:107A5000668BB95304005F43063C0A4B1B4B060080
:107A60000B93EB234F4339413A413B4130410B12D9
:107A70000A12091208120712061205120412084C03
:107A8000094D0A430B430C4E0D4F0E430F43B012EA
:107A9000DA7A3441354136413741384139413A414A
:107AA0003B4130410B120A1209120812071206124A
:107AB0000512041218411200194114001A4116004F
:107AC0001B411800B012DA7A344135413641374152
:107AD000384139413A413B41304104430543064373
:107AE00007430E3C12C30B100A100910081004289B
:107AF000045C056D066E076F0C5C0D6D0E6E0F6FEE
:107B00000893F0230993EE230A93EC230B93EA23C3
:107B10000C440D450E460F4730417C4010000D4E81
:107B20000E430F5F0E6E0E9D02280E8D1FD31C8319
:107B3000F8233041B0121A7B0F4E30410D430F93A2
:107B400004343D4003003FE31F530E9303345DE3D1
:107B50003EE31E530D12B0121A7B3D416DB3022459
:107B60003EE31E535DB302243FE31F533041B01286
:107B70003C7B0F4E30410B120A120A4E0B4F0C4346
:107B80003D40004FB0125A820F9307340E4A0F4BFC
:107B9000B01250833A413B4130410C433D40004FCD
:107BA0000E4A0F4BB012967EB01250830E533F60B8
:107BB00000803A413B4130410B120A12091208126F
:107BC00007120612051204123150FAFF084D6B4FCE
:107BD0006B9367286C4E6C93E9286B9202203040BF
:107BE000387E6C92E3246C93BB246B93DF24914F1B
:107BF000020000001B4E0200144F0400154F060047
:107C0000164E0400174E06002C410C8B094C0C93A9
:107C1000BF383990200050341C93D7388146020079
:107C2000814704004C497CF01F000B240A460B4797
:107C300012C30B100A107C53FB23814A0200814BB4
:107C400004001C430D4379F01F0004240C5C0D6DEF
:107C50007953FC233C533D630CF60DF71A430B4359
:107C60000C9302200D93E5241641020017410400F5
:107C700006DA07DB5F4F01005F9E01002820C84F36
:107C80000100A84102000E460F470E540F65884EB2
:107C90000400884F0600F840030000000F934D38A1
:107CA0000F483150060034413541364137413841A3
:107CB00039413A413B4130412B916738814B0000BB
:107CC000044305435F4F01005F9E0100D8274F9397
:107CD00068240E460F470E840F750F936938C8430A
:107CE0000100A8410200884E0400884F06000C4E97
:107CF0000D4F3C533D633D90FF3F05283D900040B4
:107D0000172C3C93152C1B4802003B530E5E0F6F43
:107D10000A4B3B530C4E0D4F3C533D633D90FF3F90
:107D2000F52B3C24884E0400884F0600884A020048
:107D3000F840030000000F93B3370C4E0D4F1CF3B7
:107D40000DF312C30F100E100A4C0B4D0ADE0BDFA1
:107D5000884A0400884B0600985302000F48A13F50
:107D60006B939F23AD4F00009D4F020002009D4F7B
:107D7000040004009D4F060006005E4E01005EFFF9
:107D80000100CD4E01000F4D8C3F064307439A3F43
:107D900039E31953399020008F373E3F3C93B62B7F
:107DA000C13F0E440F450E860F77973F0F4E793F28
:107DB000D8430100A84102003EE33FE31E530F6396
:107DC000884E0400884F0600923F0C937B27815910
:107DD000000081440200814504004D497DF01F00F0
:107DE0000C244B4D0C440D4512C30D100C107B534D
:107DF000FB23814C0200814D04001C430D4379F0AC
:107E00001F0004240C5C0D6D7953FC233C533D632F
:107E10000CF40DF51A430B430C9304200D93022030
:107E20000A430B43144102001541040004DA05DB48
:107E3000493F0A430B43183F6C923323DF9E0100F6
:107E400001002F273F40C48B2C3F3150E0FF814E73
:107E50000400814F0600814C0000814D02000E415C
:107E60003E5018000F412F52B01212870E413E5063
:107E700010000F41B01212870D413D520E413E508D
:107E800010000F413F501800B012B87BB01234857B
:107E90003150200030413150E0FF814E0400814FCD
:107EA0000600814C0000814D02000E413E5018003A
:107EB0000F412F52B01212870E413E5010000F4159
:107EC000B0121287D1E311000D413D520E413E50D8
:107ED00010000F413F501800B012B87BB01234852B
:107EE0003150200030410B120A12091208120712F9
:107EF0000612051204123150DCFF814E0400814F3E
:107F00000600814C0000814D02000E413E501800D9
:107F10000F412F52B01212870E413E5010000F41F8
:107F2000B01212875F4118006F93B6285E411000AF
:107F30006E93D9286F92AE246E92E2246F93AC2494
:107F40006E93D12414411C0015411E0018411400E9
:107F5000194116003C4020000E430F4306430743DF
:107F600081432000814322000A430B43814C2000BF
:107F7000083C0858096912C305100410B1532000C9
:107F8000192414B30D240A580B690E560F671C43AD
:107F90000D430B9903280B240C430D430E5C0F6D0E
:107FA000065607670993E53716D307D3E23F0A98C9
:107FB000F52BF23F814A2000814B22000C4F1A41E1
:107FC0001A001A511200064A265381460A005D43E0
:107FD000D191110019008324C14D09000C933C3844
:107FE0003F900040182C1D410A003D531A412000CB
:107FF0001B4122000C4D0E5E0F6F0B932A380A5A5C
:108000000B6B3D533F900040F52B814A2000814B84
:108010002200814C0A000C4E0D4F3CF07F000DF306
:108020003C9040004424814E0C00814F0E00F140F2
:10803000030008000F413F52B01234853150240034
:108040003441354136413741384139413A413B416C
:1080500030411ED30FD3D33F3A500300084A1EB31A
:1080600010241C4120001D41220012C30D100C10D1
:10807000064C074D06D337D000808146200081474B
:10808000220012C30F100E101A530F93E73B8148C2
:108090000A00A63F6E9336245F43D1911100190068
:1080A0002024C14F19000F413F501800C53F0D93C8
:1080B000BA230C4E0D4F3CF080000DF30C93B3230C
:1080C0000D93B12381932000032081932200AB27DD
:1080D0003E5040000F633EF080FF3FF3A43F4D430E
:1080E0007B3F4F43DE3F5F43D191110019000624CF
:1080F000C14F11000F413F5010009E3F4F43F83FCA
:108100006F93F1233F40C48B973F0B120A12091261
:10811000081207123150E8FF814E0400814F06001B
:10812000814C0000814D02000E413E5010000F4175
:108130002F52B01212870E413E520F41B0121287D9
:108140005F4110006F935D285E4108006E938228A6
:10815000D1E1090011006F9258246F9356246E925A
:108160006F246E934C241D4112001D810A00814D25
:1081700012001E4114001F41160018410C00194145
:108180000E000F991E2C0E5E0F6F3D53814D120095
:1081900037401F000C433D4000400A430B430B3C5B
:1081A0000ADC0BDD0E880F7912C30D100C100E5E69
:1081B0000F6F37530B240F99F72BF2230E98F42BE4
:1081C000EF3F099FE52B0E98E32FDD3F0C4A0D4B47
:1081D0003CF07F000DF33C9040001C24814A1400C9
:1081E000814B16000F413F501000B01234853150C2
:1081F00018003741384139413A413B413041E14271
:1082000010000F413F501000F03F4F9EFA233F40B7
:10821000C48BEB3F0D93E2230C4A0D4B3CF08000E6
:108220000DF30C93DB230D93D9230E9302200F93B0
:10823000D5273A5040000B633AF080FF3BF3CE3F26
:108240008143140081431600814312000F413F50C7
:108250001000CB3F0F413F52C83F3150E8FF814EE5
:108260000400814F0600814C0000814D02000E4148
:108270003E5010000F412F52B01212870E413E5255
:108280000F41B0121287E19310000D28E19308000E
:108290000A280E413E520F413F501000B01236885E
:1082A0003150180030413F43FB3F0B120A1231821C
:1082B000F140030000000D4F0D5D0D430D6D4C4D61
:1082C000C14D01000E930B200F930920E1430000E4
:1082D0000F41B012348531523A413B413041B140F7
:1082E0001E0002004C931B200A4E0B4F814A0400D3
:1082F000814B06000E4A0F4BB012C2843F531F93AE
:10830000E73B814A0400814B06004E4F7EF01F0080
:108310000F203E401E000E8F814E0200D93F0E936B
:1083200010240A4E0B4F3AE33BE31A530B63DE3F34
:108330009151040004009161060006007E53F82369
:10834000E83F3F900080ED230E433F4000CFC33F06
:108350003150F4FF814E0000814F02000E412E5239
:108360000F41B01212875F4104006F932824272821
:108370006F9207241D4106000D9321383D901F0088
:108380000938C193050026203E433F40FF7F31500E
:108390000C0030411E4108001F410A003C401E00F5
:1083A0004C8D4D4C7DF01F000F20C1930500EF2731
:1083B0003EE33FE31E530F6331500C0030410E4348
:1083C0000F4331500C00304112C30F100E107D537B
:1083D000FB23EB3F0E433F40008031500C00304107
:1083E0000B120A120912081231820A4E0B4FC143B6
:1083F00001000E930D200B930B20E14300000F4171
:10840000B01234853152384139413A413B41304113
:10841000F14003000000B1401E000200814A040048
:10842000814B06000E4A0F4BB012C2843F530F938C
:108430001838E527814A0400814B06004E4F7EF034
:108440001F0006203E401E000E8F814E0200D73FC7
:108450009151040004009161060006007E53F82348
:10846000F13F0E4F3EE31E531C430D43484E78F040
:108470001F0004240C5C0D6D7853FC233C533D63BA
:108480000CFA0DFB184309430C9304200D930220B2
:10849000084309437EF01F000E200D480E490DDAF7
:1084A0000EDB814D0400814E06003E401E000E8F03
:1084B000814E0200A43F12C30B100A107E53FB230F
:1084C000EC3F0B120A1209121F93172C3E90000169
:1084D0002C283A4018000B4339420C4E0D4F4F499F
:1084E0004F9317203C50CC8B6E4C0F430A8E0B7F62
:1084F0000F4A39413A413B4130413F9000010F283A
:108500003A420B43394018000C4E0D4F4F494F93E0
:10851000E92712C30D100C107F53FB23E33F3A40B1
:1085200010000B4339401000EF3F3A4020000B434E
:108530000943EA3F0B120A120912081207120D4FE3
:108540001E4F04001F4F06005A4D01006C4D6C93E6
:1085500070286C926A246C9336240E9332241B4D3F
:1085600002003B9082FF6D383B9080005E340C4EE1
:108570000D4F3CF07F000DF33C90400040243E50F6
:108580003F000F630F934A380D4B3D507F0012C3DD
:108590000F100E1012C30F100E1012C30F100E107A
:1085A00012C30F100E1012C30F100E1012C30F10B3
:1085B0000E1012C30F100E103EF33FF07F004D4D12
:1085C000053C0F93CC234D430E430F434D4D0D5DA2
:1085D0000D5D0D5D0D5D0D5D0D5D0D5D0C4F3CF098
:1085E0007F000CDD4F4A0F110F430F100D4C0DDFB4
:1085F0000F4D3741384139413A413B4130410D93AC
:10860000BE230C4E0D4F3CF080000DF30C93022066
:108610000D93B8273E5040000F63B43F12C30F10B4
:108620000E100D4B3D508000B23F7D430E430F4373
:10863000CD3F0ED33FD010003EF33FF07F007D438F
:10864000C53F374082FF078B37901A004F340C4EDE
:108650000D4F4B477BF01F00052412C30D100C106B
:108660007B53FB231843094377F01F000424085869
:1086700009697753FC233853396308FE09FF1E4309
:108680000F4308930420099302200E430F43084E22
:10869000094F08DC09DD0E480F493EF07F000FF35B
:1086A0003E904000262438503F0009630E480F4991
:1086B00012C30F100E1012C30F100E1012C30F10A2
:1086C0000E1012C30F100E1012C30F100E1012C393
:1086D0000F100E1012C30F100E103EF33FF07F006C
:1086E0005D4339900040722F4D43703F084309436A
:1086F000DA3F0F93D8230E480F493EF080000FF366
:108700000E930424385040000963D03F0F93CE27C6
:10871000F93F0B120A122A4F5B4F02003BF07F0019
:108720001D4F020012C30D1012C30D1012C30D1005
:1087300012C30D1012C30D1012C30D1012C30D1071
:108740004D4D5F4F03003FB080000F430F6FCE4F82
:1087500001000D932D200A935124BE4082FF020098
:108760000C4A0D4B0C5C0D6D0C5C0D6D0C5C0D6DB5
:108770000C5C0D6D0C5C0D6D0C5C0D6D0C5C0D6D71
:10878000FE40030000003D9000400B2C3F4081FF65
:108790000C5C0D6D0A4F3F533D900040F92B8E4A03
:1087A00002008E4C04008E4D06003A413B413041A0
:1087B0003D90FF002A243D5081FF8E4D0200FE4077
:1087C000030000000C4A0D4B0C5C0D6D0C5C0D6D34
:1087D0000C5C0D6D0C5C0D6D0C5C0D6D0C5C0D6D11
:1087E0000C5C0D6D0A4C0B4D0AD33BD000408E4AF9
:1087F00004008E4B06003A413B4130410B93AD23C0
:10880000EE4300003A413B4130410A930C240C4AAC
:108810000D4B0CF33DF010000C9302200D93082437
:10882000DE430000E43F0B93F223EE420000E33FFF
:10883000CE430000DC3F0B126D4F6D9312286C4E3F
:108840006C930F286D9241246C9211246D930D242A
:108850006C9314245D4F01005D9E010014244D9320
:1088600009201E430F4E3B4130416C932824CE9388
:108870000100F7233E430F4E3B413041CF930100AF
:10888000F0273E43F83F1B4F02001C4E02000C9B9A
:10889000E63B0B9C16381B4F04001F4F06001C4E76
:1088A00004001E4E06000E9FDA2B0F9E02280C9B22
:1088B000D62B0F9E06280E9F02280B9C02280E43E3
:1088C000D13F4D93CE233E43D63F6C92D7235E4E8D
:1088D00001005F4F01000E8FC53F0B120D930A245C
:1088E0007B4F7C4E4B9C04244F4B4E4C0F8E033CD5
:1088F0003D53F43F0F433B4130410B120A12091222
:10890000081207120D9370240F9E6E24342C0C4E07
:108910000CDF1CF31B240C4E0CEF1CF307202D93D3
:1089200007280B4E1BF32C430C8B033C0C4D013CD6
:108930001C430D8C0A4C094E0B4FFB4900001B5386
:108940003A53FB230A4F0A5C0E5C013C0A4F0B4D65
:1089500012C30B100B24094B084E0C4ABC480000F4
:108960002C533953FB230B5B0E5B0A5B1DF33C243A
:10897000EA4E0000393C0E5D0C4F0C5D0B4C0BDEDB
:108980001BF31B240B4C0BEE1BF306203D90030046
:1089900003280B4E1BF3013C0B4D0D8B094E0A4C6B
:1089A000084B088C3A533953EA490000074A0758E4
:1089B000F9233BE31B530C5B0E5B0B4D12C30B10F7
:1089C0000E240A4B084E094C28832983A94800002D
:1089D0003A53FA230A8B0B4A0B5B0E5B0C5B1DF3BD
:1089E0000324DC4EFFFFFFFF3741384139413A4154
:1089F0003B4130410B120A12091208123D90060049
:108A0000092C0C4F043CCC4E00001C533D530D93DD
:108A1000FA23203C4E4E4B4E0B9303240C4B8C10F0
:108A20000BDC1FB306243D53CF4E0000094F1953F2
:108A3000013C094F0C4D12C30C100A49084C8A4BDB
:108A400000002A533853FB230C5C0C591DF30224FD
:108A5000CC4E0000384139413A413B4130410B1284
:108A60000A120912081207120612051204123D40DA
:108A70002D213DF0FEFFC29384170520D2438417B9
:108A8000BD40FEFF00000A413A50D8FF0C4F1C5376
:108A900012C30C10033C1E530E5E0D5E2F4D0E4F85
:108AA00012C30E1055433E90FF7F012445431FF330
:108AB0004E2045931624084A0E4A8E108E118E10B1
:108AC0008E11094E064D0E4D8E108E118E108E1188
:108AD000074E0E480F490E860F770F110E103E53AA
:108AE000183C044E14530B440B5B0B5D2F4B1FB310
:108AF00010200E4F3EF0FEFF3E90FEFF052412C3F5
:108B00000F100F540F5F023C3F40FEFF8D4F0000DF
:108B1000C53F0E9C1C280F4C1F530F5F0F5D0A9F13
:108B2000182845930424BF40FEFF0000093C0E9C1A
:108B300007240B4C3BE30B5E8F4B0000AF5F000044
:108B40000C5C1CD38D4C00000F4D2F53033C459300
:108B5000A2270F433441354136413741384139412D
:108B60003A413B413041BFF0FEFFFEFF3041001370
:108B70000E5BC65B1E5E505E605E705E805E905EE9
:108B8000465B645B845B9E5B805B645BE86B9A6CBA
:108B9000A46C5A6D886D926D006F106F3E6F767485
:108BA000D2749875CA75FE751076B06D1E6E5A6EC9
:108BB0009C6EF86E0000100050009000D000F00095
:108BC000009C0208000000000000000000010202FA
:108BD0000303030304040404040404040505050555
:108BE0000505050505050505050505050606060631
:108BF0000606060606060606060606060606060615
:108C00000606060606060606060606060707070700
:108C100007070707070707070707070707070707E4
:108C200007070707070707070707070707070707D4
:108C300007070707070707070707070707070707C4
:108C400007070707070707070707070708080808B0
:108C50000808080808080808080808080808080894
:108C60000808080808080808080808080808080884
:108C70000808080808080808080808080808080874
:108C80000808080808080808080808080808080864
:108C90000808080808080808080808080808080854
:108CA0000808080808080808080808080808080844
:108CB0000808080808080808080808080808080834
:0C8CC00008080808080808080808080848
:108CCC0009001010200803000103FFFFFF22010020
:108CDC0001FFFFFF0100C603C403C403CA03CA0398
:108CEC00C603C803C603C603C303C403BE03BE0343
:108CFC00C103BE03B903B903B403B203AD03AD039F
:108D0C00A803A803AC03A803AC03AC03AD03AD03E9
:108D1C00AF03AD03AF03AC03B003B003B503B403AF
:108D2C00BE03BE03C303C303C803C803CE03CD03F2
:108D3C00D503D703DF03DF03ED03ED03F503F603E0
:108D4C00F203F003D503D303BB03BB03AF03AF03A1
:108D5C00B003AF03B503B503BB03B903B703B70344
:108D6C00B203B203AC03AC03990399037B037903FD
:108D7C008F039203F203F5030C040704EB03ED03DA
:108D8C00E903E903E203E103E603E603EE03EE0382
:108D9C000B040C042E042F04E903CB03F104290566
:108DAC0009041505320323036D026A02D302D902AA
:108DBC0094039B030204050425042304FC03FA0317
:108DCC00D503D303C803CA03D303D503E403E403D5
:108DDC00EE03EE03F603F503FD03FD03090409049A
:108DEC001B041B043B043D0472047404AB04CF0449
:108DFC006A045904B703D5039B0478045004520445
:108E0C005B04540429042704E903E803B903B703FA
:108E1C0099039703850385037F0380037F037F03F7
:108E2C00850383038C038A0396039703A003A00393
:108E3C00AC03AD03B503B503BE03BE03C303C1034B
:108E4C00C603C603CB03C603CA03CA03CE03CE03B1
:108E5C00D703D703DF03DF03E903E903EB03ED03D8
:108E6C00E903EB03E903E803ED03EB03EE03EB0388
:108E7C00EE03ED03E903EB03E803E803E403E20389
:108E8C00E403E103E403E403E103E103DF03E103AF
:108E9C00DF03DF03DD03DF03E203E203E903E9039E
:108EAC00F003F003F503F503FC03FC03FF03FF03DE
:108EBC0005040404100410041A04180420042004EB
:108ECC001D041F04180418040C040C0404040404EA
:108EDC000104040405040404F603F503D903D903BF
:108EEC00C603C803C603C603CA03C603CB03C80321
:108EFC00CE03CD03D203D003DF03DF03ED03EE0378
:108F0C00FD03FD03F603FC03EB03E903A503A50333
:108F1C000C040E04A003B703FA03FC0311041104A0
:108F2C001A041B0420041F04130411040404020477
:108F3C00F603F603ED03EE03EB03EB03EE03EE0394
:108F4C00F303F203E903E903DD03DD03CA03CA03F8
:108F5C00BC03BC03BF03BF03CB03CD03DA03DA03AB
:108F6C00E903EB03FC03FC030C040C0410040C04D9
:108F7C0007040704FF03FF03F803F803F503F503E5
:108F8C00F203F303F003F003F203F003F803F60328
:108F9C00FC03FC030104010402040404070405049B
:108FAC0007040404090407040C040C041104110440
:108FBC00140413040E04100407040704FC03FC033C
:108FCC00EE03EE03E403E403DD03DF03E203DF035C
:108FDC00E403E203E603E103E203E103DF03DF035F
:108FEC00DD03DD03DF03DF03E203E203E103E1035F
:108FFC00E403E203DD03DF03DC03DA03CA03CA0381
:10900C00C303C303C403C603CA03CA03D203D203F4
:10901C00D703D703DA03DC03E903E903F003EE0318
:10902C00E603E603AD03AA0355035203710376036B
:10903C00E203E80338043904410438041604160426
:10904C0005040504FF030104FD03FC0304040404EC
:10905C00090407040C040C041F042E041B04E9036C
:10906C008104EF04CE03C20424031403DD02DE02E8
:10907C0073037603A603A803B703B703C103C103A5
:10908C00BB03BB03BF03BB03B903BB03C103C103D6
:10909C00CB03CA03D003D003D303D303D703D50325
:1090AC00D203D203D503D503DD03DF03E403E603C8
:1090BC00F003F003FD03FD0302040204F503F503C2
:1090CC00D703D503B703B703A603A503AA03AC03C1
:1090DC00B903B903BF03BF03C103BF03BB03BC0385
:1090EC00B903B903BC03BE03C303C303CA03CA0356
:1090FC00CD03CD03D303D303D903D703DC03DC03A4
:10910C00D703D703D503D703CD03CD03C603C603BB
:10911C00BF03BF03BB03BC03B903B903B503B5035A
:10912C00B903B903C103C103CB03CB03D003D003F1
:10913C00CD03D003D203D003D303D203D503D5037D
:10914C00D703D503D203D203CB03CE03D903DA035F
:10915C00E103E203E803E803EE03EE03FA03F8038A
:10916C00070409041B041D0439043B0468046B0444
:10917C009604AB0427041A04BF030C043B04380404
:10918C006304650475046F043B043804ED03EB03BE
:10919C00B403B40397039703830383037D037D0315
:1091AC0079037B038203820388038803940394036B
:1091BC009E039E03AD03AF03C603C803D703D703B7
:1091CC00CE03CE03C603C603C103C103BC03BC0359
:1091DC00C103C103000000000000000000000000FB
:1091EC000000000000000000000000000000000073
:1091FC000000000000000000000000000000000063
:10920C000000000000000000000000000000000052
:10921C000000000000000000000000000000000042
:10922C000000000000000000000000000000000032
:10923C000000000000000000000000000000000022
:10924C000000000000000000000000000000000012
:10925C000000000000000000000000000000000002
:10926C0000000000000000000000000000000000F2
:10927C0000000000000000000000000000000000E2
:10928C0000000000000000000000000000000000D2
:10929C0000000000000000000000000000000000C2
:1092AC0000000000000000000000000000000000B2
:1092BC0000000000000000000000000000000000A2
:1092CC000000000000000000000000000000000092
:1092DC000000000000000000000000000000000082
:1092EC000000000000000000000000000000000072
:1092FC000000000000000000000000000000000062
:10930C000000000000000000000000000000000051
:10931C00000000000000120084102008030002006E
:04932C0012A2010088
:10FFE000AE45DC775E790C79EA7680766276AE454E
:10FFF000E6788A78AE45AE45C476A676AE45004032
:0400000300004000B9
:00000001FF
